:020000002729AE
:1000060083120313851C7B288601051D7A28081C8C
:100016004228081688120330A0000030A100803064
:100026002106F00080307002031D1B2801302002DB
:10003600031C3C282008F0002108F100F00DF10D0A
:1000460070107008223E8400000886000B30FB000A
:100056002630FC005D30FD00FD0B2F28FC0B2F2801
:10006600FB0B2F28000000000130A002031CA10397
:100076001228860108128815081008157728881492
:1000860008110330A0000030A10080302106F000E6
:1000960080307002031D512801302002031C722893
:1000A6002008F0002108F100F00DF10D7010700825
:1000B600223E8400000886000B30FB002630FC0040
:1000C6005D30FD00FD0B6528FC0B6528FB0B6528E4
:1000D600000000000130A002031CA103482886018D
:1000E6008810081488118816051D7A287728032891
:0200F600080000
:0E00F8008312031353088A0052088200080086
:10010600173083120313A0000030A10080302106AF
:10011600F00080307002031D922801302002031C7B
:10012600CE28881508128812081088100815803005
:10013600F000803021067002031DA3282008033C2E
:10014600031CAB2888150812881208108814081199
:10015600851CAF280320CE282008F0002108F100D6
:10016600F00DF10D70107008223E84000008860024
:100176000B30FB002630FC005D30FD00FD0BC12876
:10018600FC0BC128FB0BC128000000000130A002B7
:08019600031CA10389280800E5
:10019E007C208A110A128000840AD20A0319D30A1B
:0801AE00F003031DCF28080037
:1001B6000F3083120313A0000030A1008030210607
:1001C600F00080307002031DEA2801302002031C73
:1001D60026298811081288160814881008118030FC
:1001E600F000803021067002031DFB282008033C26
:1001F600031C032988110816881208148810081190
:10020600851C0729032026292008F0002108F10073
:10021600F00DF10D70107008223E84000008860073
:100226000B30FB002630FC005D30FD00FD0B19296C
:10023600FC0B1929FB0B1929000000000130A00254
:08024600031CA103E1280800DC
:10024E0076210730831603139F00850186018701EF
:10025E0088018312850186018701880105183829D6
:0E026E003529FF308700DB2083203A293D2907
:1002EC0020308400323083120313F0004330D200EC
:0802FC000130D300CF200800FF
:04028600003400340C
:10028A0000340034013400340234003403340034BE
:10029A00043400340534003406340034073400349E
:1002AA000834003409340034103400341134003472
:1002BA001234003413340034143400341534003446
:1002CA001634003417340034183400341934003426
:1002DA0020340034213400342234003423340034EE
:02400E004A2F37
:00000001FF
